:020000040000FA
:100000000A128A11FC2F00308A000408840A820731
:10001000003444345534433420344434413454346B
:020020000034AA
:1008D80001300A128A11BE240A128A1108300A123B
:1008E8008A11BE240A128A11080001300A128A11DC
:1008F800BE240A128A110C300A128A11BE240A1266
:100908008A11080000300A128A11BE240A128A11BC
:1009180001300A128A11BE240A128A110D30F5001C
:10092800FB30F400F40B962CF50B962C9B2C08004E
:10093800F000701CA02CA12CA52C83120313081600
:10094800A82C831203130812F01CAB2CAC2CAE2C71
:100958008816AF2C8812701DB22CB32CB52C081732
:10096800B62C0813F01DB92CBA2CBC2C8817BD2C3A
:1009780088130800F30083120313081173080A127E
:100988008A119C240A128A118312031388150330D2
:1009980073020318D02CD12CDB2C0D30F200FB3065
:1009A800F100F10BD52CF20BD52CDA2CDF2C5330BF
:1009B800F100F10BDD2C8312031388110800F800F5
:1009C800F601F701FA2C7608780784000A128A11D2
:1009D80003200A128A110A128A1186250A128A111C
:1009E8000130F6070318F70A0030F707760878078A
:1009F80084000A128A1103200A128A11003A031D80
:100A0800062D072DE72C08007008710403190D2D19
:100A18000E2D3D2DF501F50A1C2D01300310F00DAA
:100A2800F10DFF3E031D122D0130F4007408F50787
:100A3800F11F1F2D202D112D71087302031D262D66
:100A480070087202031C292D2A2D302D7008F2021D
:100A58007108031CF303F30201300310F10CF00CCE
:100A6800FF3E031D312D0130F502031D3C2D3D2DA8
:100A7800202D7308F1007208F0000800F501F60156
:100A8800700871040319492D4A2D812DF701F70AC1
:100A9800582D01300310F00DF10DFF3E031D4E2DB2
:100AA8000130F4007408F707F11F5B2D5C2D4D2D04
:100AB80001300310F50DF60DFF3E031D5D2D710885
:100AC8007302031D692D70087202031C6C2D6D2DB5
:100AD800742D7008F2027108031CF303F3027514F5
:100AE80001300310F10CF00CFF3E031D752D013091
:100AF800F702031D802D812D5C2D7608F100750805
:100B0800F0000800F50075080F39F1007108F300CE
:100B18007508F039F1007108F40083120313081501
:100B28007408F10004300310F10CFF3E031D972DEB
:100B380071080A128A119C240A128A11831203135B
:100B480088150430F2003D30F100F10BA92DF20BAD
:100B5800A92DAE2D8312031388110430F2003D3005
:100B6800F100F10BB52DF20BB52DBA2D73080A1251
:100B78008A119C240A128A118312031388150430DF
:100B8800F2003D30F100F10BC72DF20BC72DCC2D33
:100B98008312031388110430F2003D30F100F10B89
:100BA800D32DF20BD32DD82D0800831603138801FB
:100BB8000811881100300A128A119C240A128A111D
:100BC800C330F500CD30F400F40BE82DF50BE82D1B
:100BD8000430F5003D30F400F40BF02DF50BF02D4A
:100BE800F52D03300A128A11BE240A128A11213007
:100BF800F5007630F400F40BFF2DF50BFF2D000007
:100C080003300A128A11BE240A128A11F930F4003C
:100C1800F40B0C2E0F2E03300A128A11BE240A126E
:100C28008A1102300A128A11BE240A128A1102306D
:100C38000A128A11BE240A128A1108300A128A116D
:100C4800BE240A128A1100300A128A11BE240A121E
:100C58008A110C300A128A11BE240A128A11003035
:100C68000A128A11BE240A128A1106300A128A113F
:100C7800BE240A128A11080083120313B401B501B5
:100C880078087904031D492E4A2E562E7808303EDE
:100C9800FA007A08B60036080A128A1186250A125E
:100CA8008A11BF2E7808790403195B2E5C2EBF2E9B
:100CB800902E0A30F0000030F1007908F30078082F
:100CC800F2000A128A1108250A128A1183120313E4
:100CD8003408FA007A07203E8400700883138000E5
:100CE800840A710880000A30F0000030F1007908A9
:100CF800F3007808F2000A128A1142250A128A11B2
:100D08007108F9007008F800013083120313B40762
:100D18000318B50A0030B50778087904031D952E25
:100D2800962E5D2EFF30B4070318B50AFF30B507BD
:100D38003508B8003408B700B81FA32EA42EA52E76
:100D4800BF2E3708FA007A07203E84008313000874
:100D5800303EFB007B08B60036080A128A11862549
:100D68000A128A11FF3083120313B7070318B80A4F
:100D7800FF30B807A02E08000630831603139F0023
:100D88000A128A11D9250A128A110A128A1186248E
:100D98000A128A11F401F40A01300A128A1157273B
:100DA8000A128A1101300A128A11E3240A128A11DE
:100DB800F401F40A02300A128A1157270A128A111A
:100DC800BF30F8000B30F9000A128A1140260A12C7
:100DD8008A11333083120313BB00BB30BA00DF30F3
:100DE800B900B90BF52EBA0BF52EBB0BF52E8312F5
:100DF8000313BC01BD01083083120313BB009D30EF
:100E0800BA000530B900B90B072FBA0B072FBB0B77
:100E1800072F0A128A1179240A128A1101308312C3
:100E28000313BC070318BD0A0030BD073D08803A0C
:100E3800FF0080307F02031D232F04303C02031C77
:100E4800262F272FFF2E83120313BE01BF01083060
:100E580083120313BB009D30BA000530B900B90BEB
:100E6800332FBA0B332FBB0B332F0A128A116C2482
:100E78000A128A11013083120313BE070318BF0A2E
:100E88000030BF073F08803AFF0080307F02031D13
:100E98004F2F04303E02031C522F532F2B2FFB2EB3
:100EA8000A128A110028F7007703031D5C2F5D2FB3
:100EB800802F74087F3EF5007508FA007A08F5005F
:100EC80004300310F50CFF3E031D652F7508F6006E
:100ED8007608F9007A080F39F5007508F8007908DE
:100EE8000A128A11BE240A128A1178080A128A1173
:100EF800BE240A128A11FB2F02307706031D852FA4
:100F0800862FA92F7408BF3EF5007508FA007A08E5
:100F1800F50004300310F50CFF3E031D8E2F7508F5
:100F2800F6007608F9007A080F39F5007508F80018
:100F380079080A128A11BE240A128A1178080A123C
:100F48008A11BE240A128A11FB2F03307706031D6B
:100F5800AE2FAF2FD22F7408933EF5007508FA0014
:100F68007A08F50004300310F50CFF3E031DB72F77
:100F78007508F6007608F9007A080F39F500750843
:100F8800F80079080A128A11BE240A128A11780810
:100F98000A128A11BE240A128A11FB2F043077061E
:100FA800031DD72FD82FFB2F7408D33EF5007508E3
:100FB800FA007A08F50004300310F50CFF3E031D13
:100FC800E02F7508F6007608F9007A080F39F50061
:100FD8007508F80079080A128A11BE240A128A11C3
:100FE80078080A128A11BE240A128A11FB2F0800F7
:080FF80083010A128A11C02EC8
:00000001FF
