:020000040000FA
:100000000A128A11E52FFF1B0D2883137F1883170F
:100010000008840A0319FF0A080000308A00040857
:10002000840A82070034013400340A340034643412
:100030000034E83403341034273425347334203446
:1000400025343034323475342F342534303432345E
:1000500075342F342534303432347534003425343B
:100060003034323475343A342534303432347534E3
:100070003A342534303432347534003428346E3414
:1000800075346C346C342934003443344C344F347C
:1000900043344B340034203441344D340034203464
:1000A00050344D340034573465346434003454349F
:1000B00075346534003446347234693400344D3458
:1000C0006F346E340034533475346E34003453342A
:1000D000613474340034543468347534003420345A
:0400E0002034003494
:1000E80083120313A0000A30F0000030F10020084A
:1000F800F900FA017908F2007A08F3000A128A1561
:1001080032270A128A117008FB0004300310FB0D15
:10011800FF3E031D8A280A30F0000030F1008312E8
:1001280003132008FC00FD017C08F2007D08F300A1
:100138000A128A1573260A128A1170087B070800AA
:10014800F7007703031DA928AA28CD2874087F3E45
:10015800F5007508FA007A08F50004300310F50C6C
:10016800FF3E031DB2287508F6007608F9007A08E4
:100178000F39F5007508F80079080A128A152F2436
:100188000A128A1178080A128A152F240A128A116B
:10019800482902307706031DD228D328F628740888
:1001A800BF3EF5007508FA007A08F5000430031020
:1001B800F50CFF3E031DDB287508F6007608F900EC
:1001C8007A080F39F5007508F80079080A128A15B7
:1001D8002F240A128A1178080A128A152F240A1263
:1001E8008A11482903307706031DFB28FC281F299C
:1001F8007408933EF5007508FA007A08F500043093
:100208000310F50CFF3E031D04297508F600760857
:10021800F9007A080F39F5007508F80079080A120C
:100228008A152F240A128A1178080A128A152F248F
:100238000A128A11482904307706031D2429252922
:1002480048297408D33EF5007508FA007A08F500C5
:1002580004300310F50CFF3E031D2D297508F60028
:100268007608F9007A080F39F5007508F80079085A
:100278000A128A152F240A128A1178080A128A1576
:100288002F240A128A11482908001D3083120313EB
:10029800B9003908A0005C08023E840083130008F6
:1002A800BA00BB013A08A1003B08A2005C0A84001E
:1002B8000008BC00BD013C08A3003D08A4005C0880
:1002C80084000008BE00BF013E08A5003F08A60044
:1002D80040300A128A11C7250A128A1183120313A1
:1002E8005C08023E84008313000803197C297D29D9
:1002F80091295C08023E84000D300002031885290C
:10030800862991293930B9003908F00040300A129D
:100318008A15CD240A128A119B293D30B900390863
:10032800F00040300A128A15CD240A128A11F4010D
:10033800F40A01300A128A11A4200A128A114030E4
:10034800F6000030F7000A128A159A250A128A1157
:100358000B3083120313B9003908A0005C08033E70
:10036800840083130008643E84000008A100003064
:10037800031D8030A2005C08043E84000008BA0017
:10038800BB013A08A3003B08A4005C08053E8400B2
:100398000008BC00BD013C08A5003D08A6005C089B
:1003A800063E84000008D03EA70007300318083036
:1003B800A80040300A128A11C7250A128A11F401CE
:1003C800F40A02300A128A11A4200A128A11403053
:1003D800F6000030F7000A128A159A250A128A11C7
:1003E80008000A128A1554230A128A11D0300A12F8
:1003F8008A158B230A128A1100300A128A158B2358
:100408000A128A110A128A154B230A128A11D1304C
:100418000A128A158B230A128A1100300A128A15C9
:10042800A2240A128A117F39F8007808831203136C
:10043800DE0000300A128A15A2240A128A11F80076
:10044800780883120313DF0000300A128A15A224E9
:100458000A128A11F800780883120313E0000030AA
:100468000A128A15A2240A128A11F800780883123F
:100478000313E10000300A128A15A2240A128A1115
:10048800F800780883120313E20000300A128A1574
:10049800A2240A128A11F800780883120313E300D1
:1004A80001300A128A15A2240A128A11F800780863
:1004B80083120313E4000A128A155D230A128A11B3
:1004C800831203135E080A128A15D5230A128A11A9
:1004D800F800780883120313DE005F080A128A15F1
:1004E800D5230A128A11F800780883120313DF0053
:1004F80060080A128A15D5230A128A11F8007808AA
:1005080083120313E00061080A128A15D5230A1220
:100518008A11F800780883120313E10062080A12AE
:100528008A15D5230A128A11F80078088312031352
:10053800E20063080A128A15D5230A128A11F80004
:10054800780883120313E30064080A128A15D52376
:100558000A128A11F800780883120313E4005E3047
:10056800080083120313A50000300A128A15FA2422
:100578000A128A1183120313A1002108A400250876
:10058800043E8400831300080A128A1174200A1298
:100598008A1183120313A1002508043E8400210850
:1005A800831380002508053E840000080A128A117A
:1005B80074200A128A1183120313A1002508053E2C
:1005C80084002108831380002508063E8400000863
:1005D8000A128A1174200A128A1183120313A100C5
:1005E8002508063E84002108831380002508023E62
:1005F800840000080A128A1174200A128A118312D0
:100608000313A1002508023E8400210883138000FB
:10061800250A840000080A128A1174200A128A1115
:1006280083120313A100250A840021088313800084
:100638002508840000080A128A1174200A128A11F7
:1006480083120313A1002508840021088313800066
:10065800A41F2F2B302B332B2508840080170A1258
:100668008A1554230A128A11D0300A128A158B234C
:100678000A128A1100300A128A158B230A128A116B
:100688008312031325088400831300080A128A15AD
:100698008B230A128A1183120313250A84008313F9
:1006A80000080A128A158B230A128A11831203136F
:1006B8002508023E8400831300080A128A158B233A
:1006C8000A128A11831203132508033E8400831338
:1006D80000080A128A158B230A128A11831203133F
:1006E8002508043E8400831300080A128A158B2308
:1006F8000A128A11831203132508053E8400831306
:1007080000080A128A158B230A128A11831203130E
:100718002508063E8400831300080A128A158B23D5
:100728000A128A110A128A155D230A128A111A30CE
:1007380083120313A3005E30A2006D30A100A10B49
:10074800A32BA20BA32BA30BA32BAA2B08000A12E3
:100758008A153F230A128A11003083120313A3005B
:100768000130A2008630A100A030A0000A128A152C
:1007780027250A128A110A128A1599270A128A113C
:10078800F401F40A01300A128A11A4200A128A110B
:100798003330F6008030F7000A128A159A250A12BB
:1007A8008A111A3083120313DB005E30DA006D30D1
:1007B800D900D90BDD2BDA0BDD2BDB0BDD2BE42B82
:1007C800831203130618E92BEA2B942C0A128A15B4
:1007D80079240A128A11031CF22BF32B942C83120E
:1007E8000313DD01A001A00A5C08023E8400831304
:1007F8000008D9005908A10001300A128A11B5244D
:100808000A128A1183120313DA005C08023E84007C
:100818005A08831380000430D9005908A0005C0AE4
:1008280084000008DA005A08A10001300A128A116F
:10083800B5240A128A1183120313DB005C0A8400B0
:100848005B08831380000530D9005908A0005C08B4
:10085800043E84000008DA005A08A10002300A1297
:100868008A11B5240A128A1183120313DB005C086B
:10087800043E84005B08831380000830D9005908BF
:10088800A0005C08053E84000008DA005A08A100B0
:1008980002300A128A11B5240A128A11831203132C
:1008A800DB005C08053E84005B08831380000D3084
:1008B800D9005908A0005C08063E84000008DA0048
:1008C8005A08A10002300A128A11B5240A128A11A4
:1008D80083120313DB005C08063E84005B08831365
:1008E80080000A128A1579240A128A1103187D2CAD
:1008F8007E2C752C831203135C080A128A11B52208
:100908000A128A11063083120313DB001330DA004F
:10091800AD30D900D90B8E2CDA0B8E2CDB0B8E2C3C
:100928000A128A11F5210A128A1183120313D900B7
:100938005908DC000A128A1149210A128A11033067
:1009480083120313DB008A30DA005530D900D90B43
:10095800AB2CDA0BAB2CDB0BAB2CE42B0A128A1179
:100968000028FD000A128A1579240A128A11031830
:10097800BE2CBF2CB62C4F2D0130A2002208A10797
:100988005D08031DC82CC92CD02C18302102031C6B
:10099800CE2CCF2CD02CA1015D03031DD42CD52C3B
:1009A800DC2C3C302102031CDA2CDB2CDC2CA101D2
:1009B80002305D06031DE12CE22CEA2C20302102D6
:1009C800031CE72CE82CEA2CA101A10A03305D06E0
:1009D800031DEF2CF02CF82C0D302102031CF52CF4
:1009E800F62CF82CA101A10A04305D06031DFD2C8C
:1009F800FE2C052D64302102031C032D042D052D2A
:100A0800A1012008A2002208F4007D080A128A1118
:100A1800A4200A128A110A30F0000030F100831273
:100A280003132108A200A3012208F2002308F300FF
:100A38000A128A1532270A128A117008303E0A12E1
:100A48008A1520260A128A110A30F0000030F100B7
:100A5800831203132108A200A3012208F20023082D
:100A6800F3000A128A1573260A128A117008303E9A
:100A78000A128A1520260A128A11063083120313D5
:100A8800A4001330A300AD30A200A20B492DA30B84
:100A9800492DA40B492D83120313861C542D552D63
:100AA800C02C2008A2002208F4007D080A128A112E
:100AB800A4200A128A115D30F6008030F7000A126D
:100AC8008A159A250A128A110A128A15ED230A1222
:100AD8008A11831203132008A2002208F4007D085B
:100AE8000A128A11A4200A128A110A30F000003072
:100AF800F100831203132108A200A3012208F200C7
:100B08002308F3000A128A1532270A128A1170087C
:100B1800303E0A128A1520260A128A110A30F0007D
:100B28000030F100831203132108A200A301220858
:100B3800F2002308F3000A128A1573260A128A1192
:100B48007008303E0A128A1520260A128A110A12E3
:100B58008A15ED230A128A11831203130618B52D7C
:100B6800B62D4F2D0A128A1579240A128A11031CF0
:100B7800BE2DBF2D4F2D013083120313A200220872
:100B8800DD072108080083120313B5002130A900EE
:100B98002908B000CE2F253038060319D42DD52DBD
:100BA800E12D3808A900350884002908831380003E
:100BB8000130A9002908B507CE2FB601B701AC014D
:100BC800EA2D2C150130A9002908A0072008840067
:100BD8000A128A110D200A128A11A900AA012A08EC
:100BE800003A0319F82DFD2D2908303A0319E52D8F
:100BF800FD2D200884000A128A110D200A128A117C
:100C08000A128A159B230A128A11031C0C2E0D2E18
:100C1800DA2E83120313B601B7010A30F000003050
:100C2800F100831203133708F3003608F2000A12A2
:100C38008A1554240A128A11710883120313B70003
:100C48007008B600200884000A128A110D200A12C2
:100C58008A11D03EA900FF3003180030AA002908E5
:100C6800B6070318B70A2A08B7070130A9002908E8
:100C7800A007200884000A128A110D200A128A117E
:100C88000A128A159B230A128A1103184C2E4D2E1C
:100C9800112EDA2E3008840083130008B100840A6C
:100CA80000088403B2000230A9002908B0073108FF
:100CB8003204031D602E612E652E2C30B100803069
:100CC800B200B301B4016E2E0130B3070318B40AA1
:100CD8000030B40733083107840032080318320A99
:100CE800FF000A128A1103200A128A11003A031D12
:100CF8007E2E7F2E682E37083402031D852E360877
:100D080033020318882E892E902E3308B602340831
:100D1800031CB703B7029E2EB601B7019E2E2030E2
:100D2800A900350884002908831380000130A90030
:100D38002908B507FF30B6070318B70AFF30B70709
:100D4800360A031DAB2E370A031DAB2EAC2E932E8D
:100D5800C62E3208FF00310884000A128A110320C7
:100D68000A128A11A9003508840029088313800013
:100D78000130B1070318B20A0030B2070130A900E8
:100D88002908B5070130B3020030031CB403B402CC
:100D9800330A031DD32E340A031DD32ED42EAD2EB1
:100DA800CE2FC030A9002908AC04F92E01308312D7
:100DB8000313A007FF30200784000A128A110D20B0
:100DC8000A128A11B800A900AA012A08003A0319D0
:100DD800EE2ECE2F2908003A0319E02F733A031993
:100DE8004E2E063A0319D52ECE2F300884008313D1
:100DF8000008AD00840A0008AE000230A9002908E6
:100E0800B007B801B80A3808A9002907013E8400CC
:100E18000A128A110D200A128A11AA000A128A11CE
:100E28000D200A128A11AB002B082E02031D1E2F5B
:100E38002A082D020318212F222F232F2D2F0130AE
:100E4800A9002908B80705303806031D2C2F2D2FB7
:100E5800072F3708803A803C031D342F36083802A4
:100E68000318372F382F442F831203133808A9008B
:100E7800AA012908B6022A08031CB703B702482F9B
:100E880083120313B601B7012C1D4B2F4C2F6A2F69
:100E9800360837040319512F522F872F3030A900F5
:100EA800350884002908831380000130A900290827
:100EB800B507FF30B6070318B70AFF30B70736087B
:100EC8003704031D682F692F522F872F36083704E0
:100ED80003196F2F702F872F2030A9003508840041
:100EE8002908831380000130A9002908B507FF30BD
:100EF800B6070318B70AFF30B70736083704031DCB
:100F0800862F872F702F3808A9002908AF00C52F12
:100F18000A30F8000030F9002F08A9002907013E1F
:100F280084000A128A110D200A128A11F0000A128E
:100F38008A110D200A128A11F1002E08F3002D08DB
:100F4800F2000A128A15DC250A128A117108FB00C0
:100F58007008FA000A128A1560250A128A117808A0
:100F6800303E83120313AA002A08B8003808A900E3
:100F7800350884002908831380000130A900290856
:100F8800B507FF30A9002908AF072F0A031DCD2F89
:100F9800CE2F8C2F0130A007FF30200784000A12C3
:100FA8008A110D200A128A11A9002908B8003808E8
:100FB800031DDF2FE02FCF2D350884008313800118
:100FC800080083136C30FD000B30FE004430FF0036
:100FD800653084000A128A15B1230A128A11DC01CD
:100FE800DD01DE01DF01E001E101E201E301E401ED
:080FF80083010A128A11AB2BE0
:10167E000630831603139F00080051344D34453451
:10168E0041345934493455340A128A157E230A12CC
:10169E008A1583160313911408000A128A157E23E5
:1016AE000A128A1583160313111408000A128A15DA
:1016BE007E230A128A15831603131115080083164A
:1016CE00031391120A128A157E230A128A158316A3
:1016DE000313111608008316031391160A128A15A6
:1016EE007E230A128A158316031311160800831619
:1016FE0003131419832B842B7E2B11081F39031D02
:10170E00892B8A2B7E2B0800F0000A128A157E2365
:10171E000A128A1570088312031393000A128A158F
:10172E007E230A128A150800F100F0013A30710288
:10173E000318A22BA32BAB2B30307102031CA82B4A
:10174E00A92BAB2BF001F00A700C08007E088A0062
:10175E007F0882000A128A15AD230A128A158000AC
:10176E00840A04087D0603190034FF0A0319FE0AD1
:10177E00B12BF300F201731CC52BC62BCA2B7008BC
:10178E00F1007108F2070310F00D0310F30C73084B
:10179E00031DD22BD32BC22B72080800F7000F307B
:1017AE007705F4000A30F5007508F0007708F600AA
:1017BE0004300310F60CFF3E031DE02B76080A12D0
:1017CE008A15C0230A128A1574070800F201FC2B31
:1017DE000130F0007008F2072130F1007630F00091
:1017EE00F00BF72BF10BF72B00006430720203188D
:1017FE00012C022C0C2C83120313061C072C082C14
:10180E000C2C86180B2C0C2CEF2B0800F000701CE7
:10181E00112C122C162C831203130816192C83125A
:10182E0003130812F01C1C2C1D2C1F2C8816202CA8
:10183E008812701D232C242C262C0817272C0813F5
:10184E00F01D2A2C2B2C2D2C88172E2C88130800DB
:10185E00F30083120313081173080A128A150D245C
:10186E000A128A15831203138815033073020318A4
:10187E00412C422C4C2C0D30F200FB30F100F10BC0
:10188E00462CF20B462C4B2C502C5330F100F10B06
:10189E004E2C8312031388110800F401F501701CFD
:1018AE00592C5A2C602C7208F4070318F50A730889
:1018BE00F50701300310F20DF30DFF3E031D612CF1
:1018CE0001300310F10CF00CFF3E031D682C700864
:1018DE007104031D732C742C562C7508F1007408BA
:1018EE00F0000800F201F301831203130618802C96
:1018FE00812C852C0130F0007008F2074130F10088
:10190E00EE30F000F00B892CF10B892C0000013029
:10191E00F0007008F30705307302031C972C982C07
:10192E007B2C03307202031C9D2C9E2CA02C0314C6
:10193E00A12C03100800F1000A128A157E230A1248
:10194E008A158316031391150A128A157E230A121D
:10195E008A15831203131308F0007008F2000A129E
:10196E008A157E230A128A157108031DBF2CC02CFE
:10197E00C62C0A128A1566230A128A15CB2C0A1255
:10198E008A1572230A128A1572080800F20072086C
:10199E00F1007108F300D72C0130F1007108F30744
:1019AE007308840083130008031DDE2CDF2CD32C58
:1019BE00E82C0130F1007108F3070130F1007108D5
:1019CE00F007700884000A128A110D200A128A1577
:1019DE00F10073088400710880000008031DF82CC4
:1019EE00F92CE02C0800F4000A128A1554230A126E
:1019FE008A15D0300A128A158B230A128A1574089A
:101A0E000A128A158B230A128A150A128A154B237B
:101A1E000A128A15D1300A128A158B230A128A15D8
:101A2E0001300A128A15A2240A128A15F3007308CD
:101A3E00F5000A128A155D230A128A157508080028
:101A4E002830831203139400831603139101803000
:101A5E009400831203132008A4002108A500220875
:101A6E00A6002308A70002300310A40DA50DA60D95
:101A7E00A70DFF3E031D3B2D2708F3002608F2009D
:101A8E002508F1002408F0000130F7003130F6008F
:101A9E002D30F5000030F4000A128A15CC260A12F9
:101AAE008A157008FF3E83160313930087150716D9
:101ABE000800780879040319652D662D952DFD0112
:101ACE00FD0A742D01300310F80DF90DFF3E031DB4
:101ADE006A2D0130FC007C08FD07F91F772D782D4B
:101AEE00692D79087B02031D7E2D78087A02031C6E
:101AFE00812D822D882D7808FA027908031CFB03AC
:101B0E00FB0201300310F90CF80CFF3E031D892D6A
:101B1E000130FD02031D942D952D782D7B08F900C3
:101B2E007A08F8000800FB01FC01BF2D7B08760740
:101B3E00F9007708F8000318F80AFB1FA72DF80321
:101B4E007808FA007A0883120313FF0079088400DC
:101B5E000A128A1103200A128A150A128A152026E1
:101B6E000A128A150130FB070318FC0A0030FC0725
:101B7E007B087607F9007708F8000318F80AFB1FB0
:101B8E00C92DF8037808FA007A0883120313FF00B0
:101B9E00790884000A128A1103200A128A15003A63
:101BAE00031DDA2DDB2D9D2D0800F501F6017008C1
:101BBE0071040319E32DE42D1B2EF701F70AF22D04
:101BCE0001300310F00DF10DFF3E031DE82D013025
:101BDE00F4007408F707F11FF52DF62DE72D0130EF
:101BEE000310F50DF60DFF3E031DF72D7108730260
:101BFE00031D032E70087202031C062E072E0E2ED6
:101C0E007008F2027108031CF303F302751401301D
:101C1E000310F10CF00CFF3E031D0F2E0130F702E6
:101C2E00031D1A2E1B2EF62D7608F1007508F000F6
:101C3E000800F50075080F39F1007108F3007508FA
:101C4E00F039F1007108F4008312031308157408BB
:101C5E00F10004300310F10CFF3E031D312E71080C
:101C6E000A128A150D240A128A1583120313881577
:101C7E000430F2003D30F100F10B432EF20B432EF7
:101C8E00482E8312031388110430F2003D30F10008
:101C9E00F10B4F2EF20B4F2E542E73080A128A158B
:101CAE000D240A128A158312031388150430F200CC
:101CBE003D30F100F10B612EF20B612E662E831278
:101CCE00031388110430F2003D30F100F10B6D2E3C
:101CDE00F20B6D2E722E0800F601F31F772E782E62
:101CEE007F2EF209F309F20A0319F30AF601F60A36
:101CFE00F11F822E832E882EF009F109F00A0319A6
:101D0E00F10A7008710403198D2E8E2EBD2EF50169
:101D1E00F50A9C2E01300310F00DF10DFF3E031D50
:101D2E00922E0130F4007408F507F11F9F2EA02E9D
:101D3E00912E71087302031DA62E70087202031CE9
:101D4E00A92EAA2EB02E7008F2027108031CF303FE
:101D5E00F30201300310F10CF00CFF3E031DB12E07
:101D6E000130F502031DBC2EBD2EA02E76080319E0
:101D7E00C12EC22EC72EF209F309F20A0319F30A75
:101D8E007308F1007208F00008000030FC0000300B
:101D9E00FB000030FA000030F90073087204710481
:101DAE0070040319DB2EDC2E292FFD01FD0AEC2E0B
:101DBE000130F8000310F00DF10DF20DF30DF80BDC
:101DCE00E12E0130F8007808FD07F31FEF2EF02EFC
:101DDE00DF2E0130F8000310F90DFA0DFB0DFC0D8E
:101DEE00F80BF22E73087702031D072F7208760286
:101DFE00031D072F71087502031D072F700874024B
:101E0E00031C0A2F0B2F1A2F7008F4027108031CE3
:101E1E00710FF5027208031C720FF6027308031C91
:101E2E00730FF702791401300310F30CF20CF10C5E
:101E3E00F00CFF3E031D1B2F0130FD02031D282F4A
:101E4E00292FF02E7C08F3007B08F2007A08F100AF
:101E5E007908F0000800F601F11F362F372F3E2FBC
:101E6E00F009F109F00A0319F10AF601F60AF31F57
:101E7E00412F422F4B2FF209F309F20A0319F30AED
:101E8E000130F4007408F606F701F80170087104C9
:101E9E000319522F532F8A2FF501F50A612F0130A6
:101EAE000310F00DF10DFF3E031D572F0130F4000E
:101EBE007408F507F11F642F652F562F013003109C
:101ECE00F70DF80DFF3E031D662F71087302031DFB
:101EDE00722F70087202031C752F762F7D2F7008DB
:101EEE00F2027108031CF303F3027714013003109E
:101EFE00F10CF00CFF3E031D7E2F0130F502031D89
:101F0E00892F8A2F652F760803198E2F8F2F942FE6
:101F1E00F709F809F70A0319F80A7808F1007708A3
:101F2E00F000080083160313880108118811003091
:101F3E000A128A150D240A128A15C330F500CD3007
:101F4E00F400F40BA82FF50BA82F0430F5003D304C
:101F5E00F400F40BB02FF50BB02FB52F03300A128F
:101F6E008A152F240A128A152130F5007630F400D6
:101F7E00F40BBF2FF50BBF2F000003300A128A158A
:101F8E002F240A128A15F930F400F40BCC2FCF2F20
:101F9E0003300A128A152F240A128A1502300A12E9
:101FAE008A152F240A128A1502300A128A152F2436
:101FBE000A128A1508300A128A152F240A128A1557
:101FCE0000300A128A152F240A128A150C300A12B2
:101FDE008A152F240A128A1500300A128A152F2408
:101FEE000A128A1506300A128A152F240A128A1529
:021FFE000800D9
:02400E00F23F7F
:00000001FF
