:020000040000FA
:060000000A128A11D32F41
:100CCA000630831603139F008701860183120313DC
:100CDA00870186010A128A1180270A128A116F2E49
:100CEA000A128A1100287E088A007F0882000A12E6
:100CFA008A1178260A128A118000840A04087D065D
:100D0A0003190034FF0A0319FE0A7C2EF300730844
:100D1A00F2007208F400952E0130F2007208F4070E
:100D2A007408840083130008031D9C2E9D2E912EA7
:100D3A0073087402F000F101F01BF1030800FF349C
:100D4A00FF3400346E346E349134FF34FF34FF3490
:100D5A00BB34BD348034BF34BF34FF34FF34FF3476
:100D6A00BD347E34663466349934FF34FF3401343A
:100D7A000234043408341034203440340834FF3444
:100D8A00FF34FF34FF34FF34FF34FF34FF34FF34C1
:100D9A008334F534F634F5348334FF34FF34FF34C6
:100DAA00FF348034B634B634C134FF34FF34FF34F0
:100DBA0081347E347E347E34BD34FF34FF34FF34D4
:100DCA00FF34FF34FF34FF34FF34FF34FF34F500BF
:100DDA00F601F60A7508F1007108F7001B2F76096B
:100DEA00F1007108F40077087007F10071088400B7
:100DFA0083130008831203138700740886000630E1
:100E0A00F2003030F100F10B082FF20B082F00002E
:100E1A00FF308312031386007608F1007107F2008F
:100E2A007208F6000130F1007108F7077508073EED
:100E3A00F100003003180130F2007208803AF30022
:100E4A0080307302031D2B2F7708710203182E2F8F
:100E5A002F2FF42E0800FF3481347E347E347E3402
:100E6A007E348134FF34FF347B347D3400340034E3
:100E7A007F347F34FF343D345E346E347634393413
:100E8A00FF34FF34FF34FF34BD347634763476349D
:100E9A008934FF34FF34EF34E734EB346D340034F3
:100EAA006F34EF34FF34FF3478347A347A34BA3416
:100EBA00C634FF34FF34FF348134763476347634E2
:100ECA008D34FF34FF34FF34FF34FC34FE34FE34F7
:100EDA00FE340034FF34FF34893476347634763481
:100EEA008934FF34FF34FF34B934763476347634B7
:100EFA008134FF34FF3420308400A030F800040825
:100F0A00F9002830FA007808840083130008FB00EF
:100F1A00F80A790884007B088000F90AFA0B882FFE
:100F2A0083120313C801BD2FC9012030F8007808C5
:100F3A00F00048080A128A11EC260A128A11343083
:100F4A00F900F130F800F80BA82FF90BA82FAD2FF4
:100F5A000130F800780883120313C9070B304902DD
:100F6A00031CB82FB92F9A2F0130F8007808C80748
:100F7A0020300A128A118B260A128A117008F80088
:100F8A007108F900F7307807FA008312031348084A
:100F9A007A020318D12FD22F992F08008317E03035
:100FAA00FD000730FE003030FF00903084000A1246
:100FBA008A117C260A128A118313C830FD00063072
:100FCA00FE00C430FF00A03084000A128A117C2679
:100FDA000A128A116A30FD000630FE00A430FF00B2
:100FEA004A3084000A128A117C260A128A11830165
:060FFA000A128A11652EA7
:02400E00F23F7F
:00000001FF
