:020000040000FA
:060000000A128A11E02F34
:100D90000630831603139F0087018601FF308312FC
:100DA00003138700860108000A128A11C8260A1256
:100DB0008A110B30F0000030F1000A128A11F92676
:100DC0000A128A11D92E0A128A1100287E088A0076
:100DD0007F0882000A128A11E6260A128A11800010
:100DE000840A04087D0603190034FF0A0319FE0A69
:100DF000EA2EFF308312031387008601F501F60106
:100E00007508603E84008313000883120313860074
:100E10007008F20003300310F20DFF3E031D0B2F8C
:100E200090307207F30075087307F40074088400AB
:100E30008317000887001A30F300F830F200F20B35
:100E40001F2FF30B1F2F00000130F5070318F60AC0
:100E50000030F6077608803AFF0080307F02031DDD
:100E6000332F08307502031C362F372F002F080050
:100E7000FF34FF34FF34FF34FF34FF34FF34FF34DA
:100E8000FF348334F534F634F5348334FF34FF34DF
:100E9000FF34FF348034B634B634C134FF34FF3409
:100EA000FF3481347E347E347E34BD34FF34FF34ED
:100EB000FF34FF34FF34FF34FF34FF34FF34FF349A
:100EC000FF34FF3400346E346E349134FF34FF3419
:100ED000FF34BB34BD348034BF34BF34FF34FF34FF
:100EE000FF34BD347E34663466349934FF34FF34C5
:100EF0000134023404340834103420344034803453
:100F0000FF3481347E347E347E347E348134FF3449
:100F1000FF347B347D34003400347F347F34FF343D
:100F2000E734E734E73400340034E734E73400349E
:100F3000FF34BD347634763476348934FF34FF346C
:100F4000EF34E734EB346D3400346F34EF34FF3476
:100F5000FF3478347A347A34BA34C634FF34FF3408
:100F6000FF3481347634763476348D34FF34FF3474
:100F7000FF34FF34FC34FE34FE34FE340034FF34DE
:100F8000FF3489347634763476348934FF34FF3450
:100F9000FF34B9347634763476348134FF34FF3418
:100FA00000340034003400340034003400340034A1
:100FB000FF34FF34FF34FF34FF34FF34FF34FF3499
:100FC0008317F030FD000730FE008030FF009030C6
:100FD00084000A128A11EA260A128A1183136830E1
:100FE000FD000730FE003830FF00203084000A1278
:100FF0008A11EA260A128A1183010A128A11D42E52
:02400E00F23F7F
:00000001FF
