:020000040000FA
:100000000A128A11F42F00308A000408840A820739
:100010000034203420344E345334203432343034DD
:100020003034303400342034203444347534633474
:0A0030002034443461347434003489
:10096A0008340A128A11F6240A128A11831603130A
:10097A00111408000A128A11F6240A128A1183161F
:10098A0003131115080018300A128A111E250A12BB
:10099A008A113530F700F70BD02C08001C300A12E8
:1009AA008A111E250A128A113530F700F70BDB2C43
:1009BA0008008316031391120A128A11F6240A12E6
:1009CA008A1183160313111608008316031391164E
:1009DA000A128A11F6240A128A11831603131116AF
:1009EA000800831603131419FB2CFC2CF62C11088F
:1009FA001F39031D012D022DF62C0800F400831265
:100A0A0003133208F3007308F404740804380A1252
:100A1A008A113A250A128A117408FB390A128A11B4
:100A2A003A250A128A114230F300F30B1A2D0000FC
:100A3A000800F60083120313B2017608F0390A128D
:100A4A008A1103250A128A117608F5000330031069
:100A5A00F50DFF3E031D2C2D0310750DF0390A12FA
:100A6A008A1103250A128A110800F2000A128A1151
:100A7A00B6240A128A118312031331080A128A1140
:100A8A0099250A128A1172088312031333040A126F
:100A9A008A1199250A128A110A128A11BF240A1286
:100AAA008A110800F60083120313B201B20A76080B
:100ABA00F0390A128A1103250A128A117608F500FA
:100ACA0003300310F50DFF3E031D662D0310750D4F
:100ADA00F0390A128A1103250A128A110800F9004C
:100AEA00F701F8018B2D7708790784000A128A1119
:100AFA0003200A128A110A128A1157250A128A1128
:100B0A000130F7070318F80A0030F8077708790761
:100B1A0084000A128A1103200A128A11003A031D5C
:100B2A00972D982D782D0800F1000A128A11F624C3
:100B3A000A128A118316031391150A128A11F624CE
:100B4A000A128A118312031313080A128A11F6244D
:100B5A000A128A117108031DB32DB42DBA2D0A1277
:100B6A008A11DE240A128A11BF2D0A128A11EA2476
:100B7A000A128A110800283083120313940083167C
:100B8A000313910180309400831203132008A400F8
:100B9A002108A5002208A6002308A7000230031096
:100BAA00A40DA50DA60DA70DFF3E031DD42D2708E4
:100BBA00F3002608F2002508F1002408F0000030AE
:100BCA00F700F430F6002430F5000030F4000A1281
:100BDA008A11BA260A128A117008FF3E8316031375
:100BEA009300871507160800FA001B2E77087F3E28
:100BFA000A128A111E250A128A11312E7708BF3E5F
:100C0A000A128A111E250A128A11312E7708933E7A
:100C1A000A128A111E250A128A11312E7708D33E2A
:100C2A000A128A111E250A128A11312E7A08F80030
:100C3A00F9017908003A0319232E312E7808013A6E
:100C4A000319FB2D033A0319032E013A03190B2E3C
:100C5A00073A0319132E312E08000730831603139F
:100C6A009F00643083120313AE002E08A8004E3092
:100C7A000A128A1120270A128A11F701F70A01308B
:100C8A000A128A11F9250A128A110B300A128A11DC
:100C9A0074250A128A11F701F70A02300A128A1118
:100CAA00F9250A128A1101300A128A1174250A12C8
:100CBA008A11333083120313B000BB30AF00DF3028
:100CCA00AE00AE0B662EAF0B662EB00B662E0A1266
:100CDA008A1175260A128A116C2E0A128A110028A4
:100CEA000A128A11D3240A128A110830FA001B3018
:100CFA00F9002730F800F80B802EF90B802EFA0B3A
:100D0A00802E0A128A11D3240A128A110830FA0094
:100D1A001B30F9002730F800F80B912EF90B912EB1
:100D2A00FA0B912E0A128A11C8240A128A11083063
:100D3A00FA001B30F9002730F800F80BA22EF90B45
:100D4A00A22EFA0BA22E0A128A11C8240A128A119A
:100D5A000830FA001B30F9002730F800F80BB32EE0
:100D6A00F90BB32EFA0BB32E08000030FC0000304A
:100D7A00FB000030FA000030F900730872047104B5
:100D8A0070040319C92ECA2E172FFD01FD0ADA2E87
:100D9A000130F8000310F00DF10DF20DF30DF80B10
:100DAA00CF2E0130F8007808FD07F31FDD2EDE2E66
:100DBA00CD2E0130F8000310F90DFA0DFB0DFC0DD4
:100DCA00F80BE02E73087702031DF52E72087602DF
:100DDA00031DF52E71087502031DF52E70087402A5
:100DEA00031CF82EF92E082F7008F4027108031C50
:100DFA00710FF5027208031C720FF6027308031CC6
:100E0A00730FF702791401300310F30CF20CF10C92
:100E1A00F00CFF3E031D092F0130FD02031D162FA2
:100E2A00172FDE2E7C08F3007B08F2007A08F10007
:100E3A007908F000080083120313AD002808A900FE
:100E4A00AA01AB01AC012C08A3002B08A2002A08B6
:100E5A00A1002908A0000A128A11C0250A128A11C3
:100E6A00033083120313AB000830AA007630A900BE
:100E7A00A90B3D2FAA0B3D2FAB0B3D2F0000831270
:100E8A0003132D08A9002908B10000300A128A119B
:100E9A003A250A128A119C3083120313AA00D6300B
:100EAA00A900A90B562FAA0B562F000003300A12CD
:100EBA008A111E250A128A111A3083120313AA00F4
:100ECA00F730A900A90B672FAA0B672F6C2F0330E5
:100EDA000A128A111E250A128A111A308312031362
:100EEA00AA00F730A900A90B782FAA0B782F7D2F1B
:100EFA0003300A128A111E250A128A111A30831225
:100F0A000313AA00F730A900A90B892FAA0B892F6E
:100F1A008E2F02300A128A111E250A128A111A30DD
:100F2A0083120313AA00F730A900A90B9A2FAA0B60
:100F3A009A2F9F2F28300A128A111E250A128A1107
:100F4A00023083120313AB000430AA00B930A9009F
:100F5A00A90BAD2FAA0BAD2FAB0BAD2FB42F0C30B5
:100F6A000A128A111E250A128A11023083120313E9
:100F7A00AB000430AA00B930A900A90BC22FAA0BF2
:100F8A00C22FAB0BC22FC92F01300A128A111E259C
:100F9A000A128A11023083120313AB000430AA002A
:100FAA00B930A900A90BD72FAA0BD72FAB0BD72F74
:100FBA00DE2F06300A128A111E250A128A11023001
:100FCA0083120313AB000430AA00B930A900A90B9D
:100FDA00EC2FAA0BEC2FAB0BEC2FF32F08000A1205
:100FEA008A11B5240A128A11B300B101B201830130
:060FFA000A128A11322EDA
:02400E00F23F7F
:00000001FF
